:100000007814D280D2811116111A510B51395167CF
:10001000318431D080FE438910227438316A51CA4C
:10002000740C316A51CA7401316A51CA7480316AE0
:1000300051CA7454317751CA7465317751CA746D9D
:10004000317751CA7470317751CA742E317751CAE1
:100050007461317751CA7463317751CA74743177DE
:1000600051CA7475317751CA7461317751CA746C51
:10007000317751CA7461317751CA743A317751CAB4
:1000800074C0316A51CA7454317751CA746531777A
:1000900051CA746D317751CA7470317751CA742E58
:1000A000317751CA7473317751CA7465317751CA47
:1000B0007474317751CA7461317751CA747431776D
:1000C00051CA7461317751CA743A317751CA749008
:1000D000316A51CA7455317751CA746D317751CA3A
:1000E0007469317751CA7464317751CA7469317750
:1000F00051CA7474317751CA7461317751CA7474BA
:10010000317751CA7465317751CA7461317751CAF8
:10011000743A317751CA74D0316A51CA7443317715
:0A01200051CA7461317751CA74723C
:10012A00317751CA7461317751CA7463317751CAD0
:10013A007474317751CA742E317751CA7473317716
:10014A0051CA7470317751CA7465317751CA746370
:10015A00317751CA742E317751CA743A317751CAFC
:10016A00F5A0C2B0C2B1D2B251CAC2B222F5A0D26F
:10017A00B0C2B1D2B251CAC2B222748D316A51CA66
:10018A00A990E975F0068475F00A84C0F02430312C
:10019A007751CAD0F0E5F02430317751CA74DF3193
:1001AA007751CA74CD316A51CAE875F00A84C0F031
:1001BA002430317751CAD0F0E5F02430317751CA72
:1001CA0074DF317751CAE59075F00A95F04008E579
:1001DA0090940A24328008743295902450800075D5
:1001EA00F00A84FEAFF0749D316A51CAEE243031B0
:1001FA007751CAEF2430317751CA7425317751CA01
:10020A00227440316A74003177740A3177741F316D
:10021A0077741F3177740E31777404317774003133
:10022A00777400317774DD316A7400317751CA749A
:10023A0048316A74003177740A3177740A317774F5
:05024A000A3177741178
:10024F003177740E3177740031777400317774DE43
:10025F00316A7401317751CA7450316A740E317733
:10026F00740E3177740E317774043177741F3177D0
:10027F0074043177741F31777411317774DF316AF9
:10028F007402317751CA22E590AE809E40028004FD
:10029F00C2B78037D2B73080063081110201847B1C
:1002AF00FF2080FBDBFB083080FD0201847BFF20F9
:1002BF0081FBDBFB183081FD020184758DEE758BA0
:0B02CF0000D28E308FFDC28FC28E2245
:00000001FF
